:100000000C9467000C948F000C948F000C948F005C
:100010000C948F000C948F000C948F000C948F0024
:100020000C948F000C948F000C948F000C948F0014
:100030000C948F000C948F000C948F000C948F0004
:100040000C942E040C948F000C94FC030C94D60397
:100050000C948F000C948F000C948F000C948F00E4
:100060000C948F000C948F006D0273027D028B0242
:100070008D0293029D02AB02BD02BF020000000888
:10008000000201000003040700000000000000005F
:1000900000000000250028002B00000000002400C4
:1000A00027002A00040404040404040402020202D7
:1000B000020203030303030301020408102040802B
:1000C0000102040810200102040810207804112401
:1000D0001FBECFEFD8E0DEBFCDBF11E0A0E0B1E0A2
:1000E000EEE5FEE002C005900D92A231B107D9F70E
:1000F00022E0A2E1B1E001C01D92AA31B207E1F70E
:1001000010E0C7E6D0E004C02197FE010E94EC0693
:10011000C636D107C9F70E94F8040C942D070C9439
:10012000000090E0FC01E854FF4F2491FC01EC55E5
:10013000FF4F8491882399F090E0880F991FFC016C
:10014000E656FF4FA591B491FC01E057FF4F859112
:1001500094918FB7F894EC91E22BEC938FBF0895B4
:10016000CF92DF92EF92FF920F931F93CF93DF9383
:100170006C017A018B01C0E0D0E0CE15DF0589F07B
:10018000D8016D918D01D601ED91FC910190F08126
:10019000E02DC6010995892B11F47E0102C021963C
:1001A000ECCFC701DF91CF911F910F91FF90EF909E
:1001B000DF90CF900895089580E090E00895FC01CD
:1001C000538D448D252F30E0842F90E0821B930BBC
:1001D000541710F0CF96089501970895FC01918D62
:1001E000828D981761F0828DDF01A80FB11D5D9699
:1001F0008C91928D9F5F9F73928F90E008958FEF07
:100200009FEF0895FC01918D828D981731F0828DBA
:10021000E80FF11D858D90E008958FEF9FEF089511
:10022000FC01918D228D892F90E0805C9F4F821B75
:1002300091098F739927089589E491E00E94100134
:1002400021E0892B09F420E0822F0895FC01848DA0
:10025000DF01A80FB11DA35ABF4F2C91848D90E0F0
:1002600001968F739927848FA689B7892C93A089CB
:10027000B1898C9180648C93938D848D981306C082
:100280000288F389E02D80818F7D80830895EF922D
:10029000FF920F931F93CF93DF93EC0181E0888F40
:1002A0009B8D8C8D981305C0E889F989808185FD27
:1002B00024C0F62E0B8D10E00F5F1F4F0F73112718
:1002C000E02E8C8DE8120CC00FB607FCFACFE8893F
:1002D000F989808185FFF5CFCE010E942601F1CFFB
:1002E0008B8DFE01E80FF11DE35AFF4FF0820B8F5B
:1002F000EA89FB898081806207C0EE89FF8960837B
:10030000E889F98980818064808381E090E0DF91D1
:10031000CF911F910F91FF90EF900895CF93DF93AE
:10032000EC01888D8823C9F0EA89FB89808185FDED
:1003300005C0A889B9898C9186FD0FC00FB607FC4E
:10034000F5CF808185FFF2CFA889B9898C9185FF8F
:10035000EDCFCE010E942601E7CFDF91CF91089526
:1003600080E090E0892B29F00E941C0181110C94FF
:100370000000089590E0FC01E458FF4F3491FC0127
:10038000E854FF4F2491FC01EC55FF4FE491EE231C
:1003900009F43BC0332339F1333091F038F4313074
:1003A000A9F0323001F584B58F7D12C0373091F05D
:1003B0003830A1F03430B9F4809180008F7D03C0D3
:1003C000809180008F77809380000DC084B58F77F7
:1003D00084BD09C08091B0008F7703C08091B000C8
:1003E0008F7D8093B000F0E0EE0FFF1FE057FF4FCE
:1003F000A591B4918FB7F894EC91611103C0209549
:100400002E2301C02E2B2C938FBF08950F931F9383
:10041000CF93DF93EC018B01888599850297A1F436
:100420006130710569F01CF4672B41F00DC062303A
:10043000710521F06330710519F006C060E001C05C
:1004400061E08C850E94BA01888599850497B9F589
:1004500001301105B1F04CF40115110581F561E091
:100460008C850E94BA0160E011C002301105B9F01C
:100470000330110521F561E08C850E94BA0160E02E
:1004800013C060E08C850E94BA0161E08E850E94F5
:10049000BA0161E088890E94BA0160E00DC060E0A5
:1004A0008C850E94BA0161E08E850E94BA0160E0ED
:1004B00088890E94BA0161E08A890E94BA01888510
:1004C0009985059709F073C00A30110508F06FC0CF
:1004D000F801EC5CFF4F0C94EC0660E08C850E9408
:1004E000BA0161E051C060E08C850E94BA0161E010
:1004F0008E850E94BA0160E04BC060E08C850E944E
:10050000BA0161E08E850E94BA0160E088890E948C
:10051000BA0161E041C060E001C061E08C850E94E9
:10052000BA0161E005C061E08C850E94BA0160E01B
:100530008E850E94BA0160E009C061E08C850E944E
:10054000BA0160E08E850E94BA0161E088890E944C
:10055000BA0161E00DC061E08C850E94BA0160E0E3
:100560008E850E94BA0161E088890E94BA0160E02C
:100570008A890E94BA0160E013C061E001C060E0B6
:100580008C850E94BA0160E08E850E94BA0161E00C
:1005900088890E94BA0160E08A890E94BA0161E0FC
:1005A0008C89DF91CF911F910F910C94BA01DF914B
:1005B000CF911F910F9108958F929F92AF92BF920A
:1005C000CF92DF92EF92FF920F931F93CF93DF931F
:1005D000EC018B0177FF04C000271127061B170BC6
:1005E0001616170634F481E090E09983888361E061
:1005F00005C0672B31F01982188260E08E850E9459
:10060000BA0154E0E52EF12C6AE0C62ED12C01157A
:10061000110509F469C03FB7F894809112019091D7
:100620001301A0911401B091150126B5A89B05C036
:100630002F3F19F00196A11DB11D3FBFBA2FA92F61
:10064000982F8827820F911DA11DB11D42E0880FB0
:10065000991FAA1FBB1F4A95D1F74E895F89688DE4
:10066000798D4C015D01841A950AA60AB70A4A8160
:100670005B816C817D8184169506A606B70638F2EB
:100680008E8B9F8BA88FB98F288139818A859B8516
:100690002130310559F401969B878A872E813F814D
:1006A0008217930771F41B861A860BC0892B21F4DD
:1006B0008E819F819B878A878A859B8501979B87EF
:1006C0008A8701501109288539858A859B852530BF
:1006D000310511F4B60101C0B7010E94B906BC0191
:1006E000CE010E94060293CFDF91CF911F910F910F
:1006F000FF90EF90DF90CF90BF90AF909F908F9042
:100700000895CF93C82F0E949100EC2FF0E0E45899
:10071000FF4FE491E33019F150F4E130D1F0E230D1
:10072000E1F584B5806284BD8FE788BD3BC0E730CA
:1007300011F1E83049F1E43081F580918000806268
:10074000809380008FE790E090938B0080938A00E5
:1007500029C084B5806884BD8FE787BD23C08091A0
:1007600080008068809380008FE790E090938900FC
:100770008093880017C08091B00080688093B0009B
:100780008FE78093B3000EC08091B00080628093A9
:10079000B0008FE78093B40005C060E08C2FCF914C
:1007A0000C94BA01CF9108950E9428071F920F92CE
:1007B0000FB60F9211242F933F934F935F936F9334
:1007C0007F938F939F93AF93BF93EF93FF9389E4AE
:1007D00091E00E942601FF91EF91BF91AF919F910F
:1007E0008F917F916F915F914F913F912F910F90DA
:1007F0000FBE0F901F9018951F920F920FB60F9279
:1008000011242F938F939F93EF93FF93E0915901BE
:10081000F0915A018081E0915F01F091600182FDC9
:1008200012C09081809162018F5F8F73209163016C
:10083000821751F0E0916201F0E0E75BFE4F958F87
:100840008093620101C08081FF91EF919F918F9110
:100850002F910F900FBE0F901F9018951F920F921F
:100860000FB60F9211242F933F938F939F93AF93C3
:10087000BF938091170190911801A0911901B09137
:100880001A013091160123E0230F2D3720F4019631
:10089000A11DB11D05C026E8230F0296A11DB11DA3
:1008A000209316018093170190931801A0931901CA
:1008B000B0931A018091120190911301A09114013B
:1008C000B09115010196A11DB11D80931201909365
:1008D0001301A0931401B0931501BF91AF919F91A3
:1008E0008F913F912F910F900FBE0F901F901895F1
:1008F000EF92FF920F931F93CF93DF93E9E4F1E020
:100900001382128288EE93E0A0E0B0E084839583A6
:10091000A683B78384E091E09183808385EC90E0A7
:100920009587848784EC90E09787868780EC90E0B9
:10093000918B808B81EC90E0938B828B82EC90E0AA
:10094000958B848B86EC90E0978B868B118E128E24
:10095000138E148EC0E0D2E01B861A86198218828C
:100960001E8A1F8A188E198EE12C89E1F82EFF82CB
:10097000EE8202E010E01D870C8783E090E09F8705
:100980008E8782E00E9491008E850E949100198AD4
:10099000188A1B8A1A8A1D8A1C8A19870887C6EE3C
:1009A000D1E01B861A86198218821E8A1F8A188E29
:1009B000198EFF82EE8285E090E09D878C8784E02F
:1009C00090E09F878E8785E00E9491008E850E942F
:1009D0009100198A188A1B8A1A8A1D8A1C8A19870B
:1009E0000887DF91CF911F910F91FF90EF900895AD
:1009F000789484B5826084BD84B5816084BD85B5FA
:100A0000826085BD85B5816085BD80916E00816005
:100A100080936E00109281008091810082608093AB
:100A200081008091810081608093810080918000AD
:100A30008160809380008091B10084608093B100D8
:100A40008091B00081608093B00080917A008460D2
:100A500080937A0080917A00826080937A008091FE
:100A60007A00816080937A0080917A008068809318
:100A70007A001092C1002091060230910702032EE5
:100A8000000C440B550BC12C87E8D82E83E9E82EC7
:100A900083E0F82EC701B6010E94CD0694E6892EA8
:100AA000912CA12CB12CCA01B901A50194010E947D
:100AB000CD06209302023093030240930402509328
:100AC00005020091EC011091ED019801110F440B0A
:100AD000550BC701B6010E94CD06CA01B901A50197
:100AE00094010E94CD062093E8013093E9014093E0
:100AF000EA015093EB01E0915901F0915A0182E033
:100B00008083E0915501F09156011082E0915701E8
:100B1000F09158018FEC808310926101E0915D01AA
:100B2000F0915E0186E08083E0915B01F0915C01D1
:100B3000808180618083E0915B01F0915C01808124
:100B400088608083E0915B01F0915C018081806826
:100B50008083E0915B01F0915C0180818F7D8083D7
:100B600089E00E9491008BE00E94910020E1F22E2A
:100B7000C2E0D0E001E010E089E491E00E941001C1
:100B8000181619060CF0CCC089E491E00E94EE0022
:100B90008093480120914601309147018D3009F042
:100BA0007DC02130310539F4E0914401F0914501D7
:100BB000EC5CFE4F09C02230310539F4E09144016C
:100BC000F0914501EC5DFE4F108284E391E00E94BC
:100BD00093065C01092E000CAA0BBB0B80931F012E
:100BE00090932001A0932101B093220184E291E02F
:100BF0000E9493066C01092E000CAA0BBB0B80937C
:100C00001B0190931C01A0931D01B0931E019091B4
:100C100023019D3669F09037B1F09236D1F460E04F
:100C200089E00E94BA0160E08BE00E94BA0111C025
:100C3000B50180E092E00E94DC02B60186EE91E010
:100C40000E94DC0206C089E00E9481038BE00E94C2
:100C5000810310922301E4E3F1E0DF018F2D1D9267
:100C60008A95E9F7E4E2F1E0DF018F2D1D928A9584
:100C7000E9F710921F0110922001109221011092A9
:100C8000220110921B0110921C0110921D01109262
:100C90001E01109247011092460119C08032E1F402
:100CA0002115310529F4109347010093460164CFC3
:100CB0002130310509F060CFE0914401F091450108
:100CC000EC5CFE4F1082D0934701C0934601109216
:100CD00045011092440150CF2115310519F480933C
:100CE00023014ACF2130310541F420914401309154
:100CF0004501F901EC5CFE4F0BC02230310509F0D3
:100D00003BCF2091440130914501F901EC5DFE4F4C
:100D100080832F5F3F4F30934501209344012CCFB8
:100D20000E94B00129CFFC0188279927E8942191DE
:100D30002032E9F3293010F02E30C8F32B3241F085
:100D40002D3239F4689404C00E94B106820F911DBF
:100D5000219120532A30C0F31EF4909581959F4F26
:100D600008957AE0979F902D879F802D910D1124F3
:100D7000089597FB072E16F4009407D077FD09D04D
:100D80000E94F20607FC05D03EF4909581959F4F96
:100D90000895709561957F4F0895052E97FB1EF479
:100DA00000940E94E40657FD07D00E94060707FC46
:100DB00003D04EF40C94E40650954095309521955F
:100DC0003F4F4F4F5F4F0895909580957095619577
:100DD0007F4F8F4F9F4F0895EE0FFF1F0590F491A7
:100DE000E02D0994AA1BBB1B51E107C0AA1FBB1F22
:100DF000A617B70710F0A61BB70B881F991F5A95A7
:100E0000A9F780959095BC01CD010895A1E21A2E15
:100E1000AA1BBB1BFD010DC0AA1FBB1FEE1FFF1F9E
:100E2000A217B307E407F50720F0A21BB30BE40BEE
:100E3000F50B661F771F881F991F1A9469F7609535
:100E40007095809590959B01AC01BD01CF010895EF
:0E0E500081E090E0F8940C942D07F894FFCF09
:100E5E00000000004701B000DF008E011001EE001F
:020E6E0002017F
:107800000C94343C0C94513C0C94513C0C94513CE1
:107810000C94513C0C94513C0C94513C0C94513CB4
:107820000C94513C0C94513C0C94513C0C94513CA4
:107830000C94513C0C94513C0C94513C0C94513C94
:107840000C94513C0C94513C0C94513C0C94513C84
:107850000C94513C0C94513C0C94513C0C94513C74
:107860000C94513C0C94513C11241FBECFEFD8E036
:10787000DEBFCDBF11E0A0E0B1E0ECE9FFE702C060
:1078800005900D92A230B107D9F712E0A2E0B1E065
:1078900001C01D92AD30B107E1F70E942D3D0C945F
:1078A000CC3F0C94003C982F959595959595959582
:1078B000905D8F708A307CF0282F295A8091C0000B
:1078C00085FFFCCF9093C6008091C00085FFFCCF60
:1078D0002093C6000895282F205DF0CF982F809127
:1078E000C00085FFFCCF9093C6000895EF92FF92F1
:1078F0000F931F93EE24FF2487018091C00087FD22
:1079000017C00894E11CF11C011D111D81E4E8164B
:1079100082E4F8068FE0080780E0180770F3E09132
:107920000401F091050109958091C00087FFE9CF1E
:107930008091C6001F910F91FF90EF9008950E94D3
:10794000763C982F8091C00085FFFCCF9093C600B5
:1079500091362CF490330CF09053892F089597555D
:10796000892F08951F930E949F3C182F0E949F3CCF
:107970001295107F810F1F9108951F93182F882350
:1079800021F00E94763C1150E1F71F9108951F935A
:10799000182F0E94763C803249F0809103018F5F5E
:1079A000809303018530C1F01F9108958091C0003C
:1079B00085FFFCCF84E18093C6008091C00085FFE5
:1079C000FCCF1093C6008091C00085FFFCCF80E102
:1079D0008093C6001F910895E0910401F091050184
:1079E00009951F9108950E94763C803241F0809164
:1079F00003018F5F80930301853081F008958091AA
:107A0000C00085FFFCCF84E18093C6008091C00058
:107A100085FFFCCF80E18093C6000895E0910401CA
:107A2000F09105010995089540E951E08823A1F0FE
:107A30002D9A28EE33E0FA013197F1F721503040CA
:107A4000D1F72D9828EE33E0FA013197F1F7215064
:107A50003040D1F7815061F708953F924F925F9285
:107A60006F927F928F929F92AF92BF92CF92DF924E
:107A7000EF92FF920F931F93CF93DF93000080E16B
:107A80008093C4001092C50088E18093C10086E015
:107A90008093C2005098589A259A81E00E94143D24
:107AA00024E1F22E9EE1E92E85E9D82E0FE0C02ECA
:107AB00010E1B12EAA24A394B1E49B2EA6E58A2E50
:107AC000F2E57F2EE0E26E2E79E4572E63E5462E36
:107AD00050E5352E0E94763C8033B1F18133B9F107
:107AE000803409F46FC0813409F476C0823409F41B
:107AF00085C0853409F488C0803531F1823521F1A3
:107B0000813511F1853509F485C0863509F48DC0BC
:107B1000843609F496C0843709F403C1853709F423
:107B200072C1863709F466C0809103018F5F80932C
:107B30000301853079F6E0910401F0910501099582
:107B40000E94763C803351F60E94F33CC3CF0E94E2
:107B5000763C803249F78091C00085FFFCCFF092DF
:107B6000C6008091C00085FFFCCF9092C600809136
:107B7000C00085FFFCCF8092C6008091C00085FFC9
:107B8000FCCF7092C6008091C00085FFFCCF609250
:107B9000C6008091C00085FFFCCF5092C600809146
:107BA000C00085FFFCCF4092C6008091C00085FFD9
:107BB000FCCF3092C6008091C00085FFFCCFB09210
:107BC000C60088CF0E94763C863808F4BDCF0E945C
:107BD000763C0E94F33C7ECF0E94763C803809F4CC
:107BE0009CC0813809F40BC1823809F43CC1883942
:107BF00009F48FC080E00E94C73C6CCF84E10E94F2
:107C0000BD3C0E94F33C66CF85E00E94BD3C0E94D3
:107C1000F33C60CF0E94763C809306010E94763C44
:107C2000809307010E94F33C55CF0E94763C80333D
:107C300009F41DC183E00E94BD3C80E00E94C73C66
:107C400049CF0E94763C809309020E94763C809343
:107C5000080280910C028E7F80930C020E94763C79
:107C6000853409F415C18091080290910902892B8D
:107C700089F000E010E00E94763CF801E85FFE4FDA
:107C800080830F5F1F4F80910802909109020817AF
:107C9000190788F30E94763C803209F045CF809125
:107CA0000C0280FF01C16091060170910701660F0F
:107CB000771F7093070160930601A0910802B091AD
:107CC00009021097C9F0E8E0F1E09B01AD014E0F09
:107CD0005F1FF999FECF32BD21BD819180BDFA9A17
:107CE000F99A2F5F3F4FE417F50799F76A0F7B1F4B
:107CF00070930701609306018091C00085FFFCCF5F
:107D0000F092C6008091C00085FFFCCFB092C60003
:107D1000E1CE83E00E94C73CDDCE82E00E94C73CFA
:107D2000D9CE0E94763C809309020E94763C8093D3
:107D300008028091060190910701880F991F909386
:107D40000701809306010E94763C853409F4A6C0A1
:107D500080910C028E7F80930C020E94763C8032D0
:107D600009F0B8CE8091C00085FFFCCFF092C6002C
:107D7000609108027091090261157105B9F140E046
:107D800050E080910C02A82FA170B82FB27011C0E2
:107D9000BB2309F45CC0E0910601F0910701319624
:107DA000F0930701E09306014F5F5F4F46175707B7
:107DB000E8F4AA2369F3F999FECF209106013091E6
:107DC000070132BD21BDF89A90B58091C00085FFB2
:107DD000FCCF9093C6002F5F3F4F30930701209355
:107DE00006014F5F5F4F4617570718F38091C00099
:107DF00085FDE5CE8091C00085FFF8CFE0CE81E023
:107E00000E94C73C67CE0E94763C803209F08CCE3F
:107E10008091C00085FFFCCFF092C6008091C00029
:107E200085FFFCCFE092C6008091C00085FFFCCFAB
:107E3000D092C6008091C00085FFFCCFC092C600E2
:107E40008091C00085FFFCCFB092C60043CEE09188
:107E50000601F091070194918091C00085FFFCCF4D
:107E60009093C6009CCF80E10E94C73C33CE0E9415
:107E7000763C0E94763C182F0E94763C112309F430
:107E800083C0113009F484C08FE00E94C73C22CE29
:107E900080910C02816080930C02E5CE80910C02EF
:107EA000816080930C0259CF809107018823880F4D
:107EB000880B8A2180930B02809106019091070123
:107EC000880F991F90930701809306018091080203
:107ED00080FF09C080910802909109020196909359
:107EE000090280930802F894F999FECF1127E091D6
:107EF0000601F0910701C8E0D1E08091080290915D
:107F00000902103091F40091570001700130D9F34B
:107F100003E000935700E89500915700017001308D
:107F2000D9F301E100935700E89509901990009169
:107F3000570001700130D9F301E000935700E89534
:107F40001395103498F011270091570001700130FB
:107F5000D9F305E000935700E895009157000170B0
:107F60000130D9F301E100935700E895329602976A
:107F700009F0C7CF103011F00296E5CF112480919F
:107F8000C00085FFB9CEBCCE8EE10E94C73CA2CD19
:0C7F900085E90E94C73C9ECDF894FFCF0D
:027F9C00800063
:040000030000780081
:00000001FF
